:02000000ff00ff
:080002004c6174746963650030
:17000a00694345637562653220323032302e31322e32373934330071
:16002100506172743a2069434534304858314b2d56513130300002
:1b003700446174653a204a756c20323920323032352031353a31373a3235006e
:0200520000ffad
:040054007eaa997e69
:02005800510055
:02005a0001059e
:03005c00920020ef
:03005f0062014bf0
:0300620072009099
:0300650082000016
:02006800110085
:02006a00010192
:20006c00000000000000000000000000000000000000000000000000000000000000000074
:09008c000000000000000000006b
:2000950000000000000000000000000000000000000000000000000000000000000000004b
:0a00b5000000000000000000000041
:2000bf00000000000000000000000000000000000000000000000000000000000000000021
:0900df0000000000000000000018
:2000e8000000000000000000000000000000000000000000000000000000000000000000f8
:0a01080000000000000000000000ed
:200112000000000000000000000000000000000000000000000000000000000000000000cd
:09013200000000000000000000c4
:20013b000000000000000000000000000000000000000000000000000000000000000000a4
:0a015b00000000000000000000009a
:200165000000000000040000000000001000000000000040000000001000000000000040d6
:0901850000000000000100000070
:20018e00000000000000000000000000000000000000000000000000000000000000000051
:0a01ae000000000000000000000047
:2001b800000000000004000000000000100000000000004000000000100000000000004083
:0901d8000000000000010000001d
:2001e1000000000000000000000000000000000000000000000000000000000000000000fe
:0a02010000000000000000000000f3
:20020b000000000000000000000000000000000000000000000000000000000000000000d3
:09022b00000000000000000000ca
:200234000000000000000000000000000000000000000000000000000000000000000000aa
:0a025400000000000000000400009c
:20025e00000000000000000000000000000000000000000000000000000000000000000080
:09027e0000000000000000000077
:20028700000000000000000000000000000000000000000000000000000000000000000057
:0a02a700000000000000000000004d
:2002b10000000000000000000000000000000000000000000000000000000000000000002d
:0902d10000000000000000000024
:2002da00000000000000000000000000000000000000000000000000000000000000000004
:0a02fa00000000000070000000008a
:200304000000000000000000000000000000000000000000000000000000000000000000d9
:09032400000000000000000000d0
:20032d000000000000000000000000000000000000400000000000002c0000000000000044
:0a034d0000000000000000000000a6
:20035700000000000000000000000000000000000000000000000000000000008000000006
:090377000000000000000000007d
:2003800000000000000000000000000000000000000000000000000000000000200010002d
:0a03a0000000000000000000000053
:2003aa000000000000000000000000000000000000000000000001400000000000050000ed
:0903ca000000000000000000002a
:2003d300000000000000000000000000000000000000000000000002000000000000080000
:0a03f3000000000000000000000000
:2003fd0000020000000000000000000000000000000000000000000000000003000180005a
:09041d00000000000000000000d6
:20042600000000000000000000000000000000000000000000000000000000002000000096
:0a04460000000000000000000000ac
:200450000000000000000000000000000000000000000000000000000ee08000000000001e
:0904700000000000000000000083
:200479000000200000000000000000000000000000000000000000000149000100000000f8
:0a0499000000000000000000000059
:2004a300000000000000000000000000000000000000000000000160000000000000005682
:0904c300a59040000000000000bb
:2004cc00000000000000000000000000000000000000000000000000000000000000000010
:0a04ec0002580000000000000000ac
:2004f6000000000000000000000000000000000000000000000000000000000000000000e6
:09051600000000000000000000dc
:20051f0000000000000000000000000000000000000000000000001c0000000000000000a0
:0a053f0000000000000000000000b2
:20054900000000000000000000000000000000000000000000000000000000010000000091
:0905690000000000000000000089
:20057200000000000000000000000000000000000000000000000000000000001000000059
:0a059200000000000000000000005f
:20059c000000000000000000000000000000000000000000000000000c100800000000001b
:0905bc0000000000000000000036
:2005c500000000000000000000000000000000000000000000000000000b0000000000000b
:0a05e500000000000000000000000c
:2005ef000000000000000000000000000000000000000000002000001c8f0c008000000392
:09060f0083d0000000000000008f
:2006180000000000000000000000000000000000000000000008000400000f002000100077
:0a063800003c040000000000000078
:20064200000000000000000000000000000000000000000000000006548f0c0000000000a3
:090662000000000000000000008f
:20066b0000000000000000000000000000000000000000000000000020200f000000000020
:0a068b000000000020000000000045
:20069500000200000000000000000000000000000000000000c00062548f0c03000000002f
:0906b5000000000000000000003c
:2006be0000000000000000000000000000000000000000000008000060200f002000000065
:0a06de000000000000000000000012
:2006e8000000000000000000000000000000000000000000000001601e8f0c0000000000d8
:09070800000000000000000000e8
:2007110000002000000000000000000000000000000000000000000000000f004000000059
:0a07310000000000000000000000be
:20073b00000000000000000000000000000000000000000000000000168f0c0000000000ed
:09075b0000000000000000000095
:2007640000000000000000000000000000000000000000000000000000000f000000000066
:0a078400000000000000000000006b
:20078e00000000000000000000000000000000000000000000000060168f0c0000018000b9
:0907ae0000000000000000000042
:2007b70000000000000000000000000000000000000000000000000000200f0000000000f3
:0a07d7000000000000000000000018
:2007e1000000000000000000000000000000000000000000004002061e8f0c0100000000f6
:09080100000000000000000000ee
:20080a0000000000000000000000000000000000000000000004000400200f001000000087
:0a082a0000000000000000000000c4
:200834000000000000000000000000000000000000000000000000001c8f0c00000d9b172e
:0908540002000000000000000099
:20085d0000000000000000000000000000000000004000000000000000000f0c000050a12f
:0a087d00640000000000000000000d
:200887000000000000000000000000000000000000000000002000001c8f0c00800801bb36
:0908a700f0400000000000000018
:2008b00000000000000000000000000000000000000000000008000400000f00200050a3fa
:0a08d0007f0c000000000000000093
:2008da00000000000000000000000000000000000000000000000006548f0c00000d1e924c
:0908fa009680800000000000005f
:2009030000000000000000000000000000000000000000000000000020200f00000019016b
:0a09230080800000000000000000ca
:20092d00000200000000000000000000000000000000000000c00060548f0c0000051b3e3b
:09094d00bfc081000000000000a1
:2009560000000000000000000000000000000000000000000008000020200f00000008879b
:0a09760080c0011000000000000026
:200980000000000000000000000000000000000000000000000400001e8f0c00000000bfdb
:0909a0004000000000000000000e
:2009a90000002000000000000000000000000000000000000000a00000000f000000000d52
:0a09c90064080000000000000000b8
:2009d300000000000000000000000000000000000000000000000000168f0c00000999525f
:0909f3000000800000000000007b
:2009fc0000000000000000000000000000000000000000000000000000000f0000009981b2
:0a0a1c00c00400000000000000000c
:200a2600000000000000000000000000000000000000000000000260168f0c00000018760f
:090a4600bc50800000000000001b
:200a4f0000000000000000000000000000000000000000000000000400200f00000011053e
:0a0a6f0042c001000000000000007a
:200a79000000000000000000000000000000000000000000004002061e8f0c000000019bc0
:090a9900800000000000000000d4
:200aa20000000000000000000000000000000000000000000004000400200f000000009f5e
:0a0ac20065000000000000000000c5
:200acc00000000000000000000000000000000000000000000000000148554000000003ae3
:090aec00a8000000000000000059
:200af50000000000000000000000000000000000000000000002000000005504080000007e
:0a0b15000280000000000000000054
:200b1f00000000000000000000000000000000000000000000200000000000000000005a3c
:090b3f00800080000000000000ad
:200b4800000000000000000000000000000000000000000000080004000000000000000d74
:0a0b680080040000000000000000ff
:200b720000000000000000000000000000000000000000000000020000000000000f010051
:090b920000000001000000000059
:200b9b0000000000000000000000000000000000000000000000000400000000000050d016
:0a0bbb000000000000000000000030
:200bc500000200000000000000000000000000000000000000c000000000000000000a0044
:090be50000000000000000000007
:200bee000000000000000000000000000000000000000000000a00000000000008000000d5
:0a0c0e0000000000000000000000dc
:200c18000000000000000000000000000000000000000000000000000000000000000000bc
:090c3800000000000000000000b3
:200c4100000020000000000000000000000000000000000000000000000000000000000073
:0a0c61000000000000000000000089
:200c6b00000000000000000000000000000000000000000000000000000000000001813fa8
:090c8b00e0000000000000000080
:200c94000000000000000000000000000000000000000000000000000000000000000895a3
:0a0cb400f000000000000000000046
:200cbe00000000000000000000000000000000000000000000000000000000000000000016
:090cde000000000000000000000d
:200ce7000000000000000000000000000000000000000000000000000000000000000000ed
:0a0d070000000000000000000000e2
:200d110000000000000000000000000000000000000000000040000000000000000018006a
:090d3100000000000000000000b9
:200d3a00000000000000000000000000000000000000000000040000000000000000010094
:0a0d5a00000000000000000000008f
:200d640000000000001063c100000062a4ee500000000000000000000000000000081b02d2
:090d840083e00000000000000003
:200d8d0000000080000f003c00020000415c8000004000000002000000000000080010a062
:0a0dad00203c0820000000000000b8
:200db7000000080030000000002000e01eae34200000000000000000000000000000005272
:090dd7003c2002000003daa040f8
:200de0008000020000000000000800020000e3000000000000000000000000000000000084
:0a0e0000803c00800000140af1009d
:200e0a00000010000000000000c0014034fa1400000000000000000001e0f00000000e0294
:090e2a0065a000000000000000ba
:200e33000000010000000000000c00362d5ed100000000000000000000000f000000d10020
:0a0e530035a40000000000000000bc
:200e5d000002000000000000000000e02daa1000000000000000000001e0f00000000002d9
:090e7d0065a000003c000000002b
:200e860000000000000000000000000201c85100000000000000000000000f00000000b071
:0a0ea60035a4000000400000000029
:200eb00000000000000000000000000020ae34200000000000000000000000000000007a86
:090ed0003c200000000200a540d6
:200ed90000002000000000000000001c01d0d3000000000000000000000000000000000019
:0a0ef900803c000000001405a0007a
:200f03000000000000000000000000002dba1000000000000000e0000000000000050a12d6
:090f23003c200000000000000069
:200f2c000000000000000000000000002fce5100000000000000000000000000000001b0a6
:0a0f4c00803c0000000000000000df
:200f5600000000000000000000000002608e34200000000000000000000000000000001225
:090f76003c200000060000000010
:200f7f0000000000000000000000000061d0d300000000000000000000000000000000004e
:0a0f9f00803c00000000000000008c
:200fa9000000000000000000000003406dde400000000000000005400000000000001dfafe
:090fc90040c0000000281e0f00ca
:200fd20000000000000000000000000623d8c000000000000000009400000000000001ddcc
:0a0ff200b3f0200000040100f2003b
:200ffc00000000000187e204000202068416680000000000000001460caa0000000001025b
:09101c00bc1400000000000000fb
:201025000000000005003bb88000401c7c2f660000000000000000027e5ef510000000e003
:0a10450003c00000000000000000de
:20104f00040008001185fb8d0820016056896800000000000000e2607eaa0000800000029b
:09106f00bc1002000000000000aa
:201078000000020000900038c0080000382b960000000000000000262768f51020000000f3
:0a10980003c000800000000000000b
:2010a200000030000001639400400003ce8968000000000000000062d68a000100050a0230
:0910c200bc100c0000000000004d
:2010cb000000030000003ba0000c003c38289600000000000000000266fbfa101000d9b0e3
:0a10eb0043c00040000000000000b8
:2010f500000200001805f38d080003e39c99680000000000000409403d9a00004005000246
:09111500bc100000000000000005
:20111e000000000000000438c010001e002a96000000000000002136336af5100400d800f2
:0a113e0043c00000000000000000a4
:201148000000000000000000000001e00e99680000000000000001605f9a02000000000635
:09116800bc10000080040000002e
:201171000000200007000000000000000009960000000000000000002a4af500000000002f
:0a11910003c000000003400000004e
:20119b000000000000197800000081c39c896800000000000000e0003f8a020000080a060f
:0911bb00bc10000200001ef068e7
:2011c40000000000000a142800000002400a96000000000000000000035ef5000001f0009c
:0a11e40003c000000000010f00002e
:2011ee00000000001881fb95080001c38c89680000000000000000e680c0f000020500074b
:09120e003c10000000000000008b
:2012170000000000000008394000000240099600000000000000002600000f000000000020
:0a12370043c00000000000000000aa
:2012410000000000d890000000000202369c7410000000000004036680c0f00303800003a5
:09126100bc100040007800000000
:20126a0000000000051800000000002c004ed300000000000000201400100f001000000097
:0a128a0003c0000a00040000000089
:2012940000000000000380020000000625c99000000000000000200000ef06000009995f1b
:0912b40011d000040068e0008084
:2012bd000000000000000800008000002c7e640000400000000000002000f0000000108398
:0a12dd00e3440000000400b000002c
:2012e700000008000007383e00200202cec50420400000000020000000ef040090018033f0
:0913070011d0020000016896c03b
:20131000000002000b0b0403c0080c1429d0100044000000000800000000f0102080f00fc2
:0a1330006388008001c000f960002e
:20133a00000000005195343e00c000060ee1a00000000000004001c2800a540000078a3242
:09135a0091d00c001e7948f080ce
:201363000000000000880a03c00c0000036e050100000000000c000242c05a09000008f324
:0a138300e74400c00006420f00001e
:20138d00000200008005703e0000000004d40600000000000000000001cf04000000001f3a
:0913ad0011d000001401e8f080e9
:2013b6000000000001000c03c000000001fd500100000000000000000000f001000800f708
:0a13d600274400000020000f000073
:2013e00000000000580da0110008000025c5a000000000000000000001ef041000001b7fa7
:09140000085000000001e8f08032
:20140900000020000000928b000000002c70af0000000000000000003010f000000050e3d8
:0a1429002adc00000000020f0000a2
:201433000000000001900000000002064ee6a020000000000000000000af0410000d8fb7f6
:0914530051d00000146948f0803a
:20145c0000000003800a00000000002c20206a00000000000000000c0000f000000051af11
:0a147c00638800000000000f00006c
:201486000000000019a86954000000621ce2542400000000000001e000ef04140000010007
:0914a600000000000074e8f08071
:2014af00000000000000f02a800008342de02020000804000000000c3410f000000050a0be
:0a14cf00000000000007820f00007b
:2014d9000000000001a9f83c000000000d9a04100000000000c001e0008f04030009010217
:0914f90083c004401604085540ac
:20150200000000000000b403c000000001f9810000000000000c00003010f000b00010f0eb
:0a152200403c204a1402a40aa00075
:20152c00007800000181be55020000004000000000000000000000001dc5f100010018d78d
:09154c003d400000006c0e0f0090
:2015550000000000000037d28210003c28000000000000000000000000305f094200300766
:0a157500c140000000420100f00038
:20157f00000008005007b02000000002800000000000000000200a0006e3402080081a3e48
:09159f00020082000670cb10006e
:2015a8000000020000800bc20800060c0000000000000000000800443c1034002000b00915
:0a15c8000000008000041fd00000a6
:2015d2002000000001a7729d00000203c6b10000000000000000000000081020000d00bea3
:0915f2001400004000314e0a0013
:2015fb000000000000103fea806000147fece200000000000000000003c04200400058b306
:0a161b006290000a02440100a200e0
:201625000003000001e5aa8901080007058a0000005000000000000000ef3020000800f261
:091645008218800000000cf30281
:20164e000000000000009f56800040007800a00000020000000000000000f30000001007a3
:0a166e00000044040000000f30806b
:201678000000000081b000000000000015f5000020000000000003c6adf4860000058e92e2
:09169800814000012068580000a7
:2016a100000000000108000000000000037ea2200100000000000004004f5a000000000b24
:0a16c100803c00000042efb800007a
:2016cb00000000050187b128020002000000000000000000000400068000000003879900e8
:0916eb0020409000143a4fe24047
:2016f4000000003820000bd288100024000000000000000000008000000000000000b8a904
:0a1714000108000000200f842000ef
:20171e0008000000019f01680400000716ba1000000000000000006680c0a20000018006e0
:09173e00bcc080202021de3c48e3
:20174700080000000008f80000000000026ba208000000000000000028d00508000000005e
:0a17670003cc0408e0c687930000dd
:2017710000000000018b3695000001c00000000000000000000a000306caf0000009003a30
:09179100821040400c041e55605a
:20179a00100000000000ba14401020003c000000000000000000401c03e00f0000005803fc
:0a17ba003414810200022c0aa00082
:0217c400000023
:0217c60011010f
:0217c80001011d
:2017ca0000000200000000000008000000000000200000000008000000000000200260004b
:0917ea0000000080000000000076
:2017f3000000000000000000000000000000000000000000000000000000000000003400a2
:0a181300000000000050000000007b
:20181d00000001000000000000040000000000001000000000040000000000001000000082
:09183d0000000040000000000062
:20184600000000000000000000000000000000000000000000000000000000000000000082
:0a1866000000000000000000000078
:201870000000020000000400000800000020000020000000000800000010000020000000d2
:09189000c0000080080002000005
:201899000000000000000040000000000001000000000000040000000001000000000000e9
:0a18b9000c00000000b00030000039
:2018c3000000000000040000000000901000000000000040000000001000000000000040d1
:0918e300000000000001000000fb
:2018ec000000000000000000000000080000000000000000000000000000000000000000d4
:0a190c0000000000000000000000d1
:2019160000000000000400000000000010000000000000400000008030000000000000c0ed
:09193600000000000003000000a5
:20193f0000000000000000000000000000000000000000000000000900000000000000007f
:0a195f00000000000000000000007e
:20196900000000000000000000000000000000000000000000000008003000000000000026
:09198900c0000000000001c000d4
:201992000000000001400000000000000000000000000000000080018001000002000000f0
:0a19b2000c0000080000000c00000b
:2019bc0000000000000000000000000000000000000000000000000000000000000000000b
:0919dc0000000000000000000002
:2019e5000000000000000000000000000000000000000000000040000000000001000000a1
:0a1a050000000004000000000000d3
:201a0f00000000000004000000000000100000000000004000000000100000000000004013
:091a2f00000000000b01000000a2
:201a38000000000000000000000000000000000000001400000080000000000002000000f8
:0a1a580000000008008000000000fc
:201a620000000000000000000000000000000000000000000000000004ab000000000000b5
:091a82000000000000000000005b
:201a8b00000000000000000000000000000000000000000000000000024cd24000000000db
:0a1aab000000000000000000000031
:201ab50000000000000000000000002200000000000000000000000004c200000000000029
:091ad50000000000000000000008
:201ade0000000000000000000000001c00000000000000000000000001588b4000000000a8
:0a1afe0000000000000000000000de
:201b08000000000000000000000003c034f04000000000000000000004a8000000000000ea
:091b2800000000000000000000b4
:201b310000000000000000000000000000eea3400000000000000000024c9640000000009f
:0a1b5100000000000000000000008a
:201b5b000002000000000000000000000000000000000000000000c00000000000000000a8
:091b7b0000000000000000000061
:201b8400000000000000000000000000000000000000000000000000000000000000000041
:0a1ba4000000000000000000000037
:201bae00000000000000000000000000000000000000000000000000000000000000000017
:091bce000000000000000000000e
:201bd7000000200000000000000000000000000000000000000002000000000000000000cc
:0a1bf70000000000000000000000e4
:201c01000000000000000000000000034000000000000000000003c00000000000000000bd
:091c2100000000000000000000ba
:201c2a00000000000000000000000000040000000000000000000020000000000000000076
:0a1c4a000000000000000000000090
:201c540000000000000000000080000000000000000000000080002004a06000000000004c
:091c740000000000000000000067
:201c7d0000000000000000000002000000000000000000000002020e024c81400000000024
:0a1c9d00000000000000000000003d
:201ca7000000000000000000000000001fc6100000000000000002c0000000000000000066
:091cc70000000000000000000014
:201cd00000000000000000000000000001cba4400000000000000020000000000000000024
:0a1cf00000000000000000000000ea
:201cfa000000000000000000000000000000000000000000000000000000000000000000ca
:091d1a00000000000000000000c0
:201d23000000000000000000000000000000000000000000000000000000000000000000a0
:0a1d43000000000000000000000096
:201d4d00000000000000000000000000000000000000000000000000000000000000000076
:091d6d000000000000000000006d
:201d76000000000000000000000000000000000000000000000000000000000000000180cc
:0a1d96000000000000000000000043
:201da000000000000000000000000000000000000000000000000000000000000000000023
:091dc0000000000000000000001a
:201dc9000000000000000000000000000000000000000000000000000000000000000000fa
:0a1de90000000000000000000000f0
:201df3000002000000000000000000000000000000000000000000000000000000000000ce
:091e1300000000000000000000c6
:201e1c000000000000000000000000000000000000000000000000000000000000000000a6
:0a1e3c00000000000000000000009c
:201e4600000000000000000000000000000000000000000000000000000000000000005c20
:091e66002bc00000000000000088
:201e6f0000002000000000000000000000000000000000000000000000000000000000072c
:0a1e8f002a8121000000000000007d
:201e9900000000000000000000000000000000000000000000000000000000000001100018
:091eb90000000000000000000020
:201ec20000000000000000000000000000000000000000000000000000000000000081a0df
:0a1ee20000000000000000000000f6
:201eec000000000000000000000000000000000000000000000000000000000200000000d4
:091f0c00000000000000000000cc
:201f15000000000000000000000000000000000000000000000000000000000008000000a4
:0a1f350000000000000000000000a2
:201f3f0000000000000000000000000000000000040000000000000000000000000000d0ae
:091f5f00168000000000000000e3
:201f6800000000000000000000000000000000000000000000000000000000000000000059
:0a1f880002950000000000000000b8
:201f92000000000000000000000000000000000000000000000000000000000000000cdf44
:091fb2008e001000000000000088
:201fbb000400000000000000000000000000000000000000000000000000000000000003ff
:0a1fdb00b3c1000000000000000088
:201fe50080300000000000000000024005b58000000000000000000000000000000b00bfe6
:09200500030010000000000000bf
:20200e0000004000000000000000000003c991600000000000000000000000000000800530
:0a202e007b810000000000000000ac
:202038000800000000000000000000000000000000000000000000000000000000000c0074
:092058000000000000000000007f
:2020610004c00000000000000000000000000000000000000000000000000000000000009b
:0a2081000000000000000000000055
:20208b0000020000000000000000000000000000000000000000000000000000000b0e001a
:0920ab000000000000000000002c
:2020b40000000000000000000000000000000000000000000000000000000000000080008c
:0a20d4000000000000000000000002
:2020de0000000000000000000000000026e0200000000000000000000000000000000000bc
:0920fe00000000000000000000d9
:202107000000300000000000000000007b58b85000000000000000000000000000000000ad
:0a21270000000000000000000000ae
:202131000c00000000000000000000000000000000000000000000000000000000000c0076
:0921510000000000000000000085
:20215a000400000000000000000000007000000000000000000000000000000000000010e1
:0a217a00000000000000000000005b
:202184008030000000000000008002c0000000000000000000100000000000020000000037
:0921a40000000000000000000032
:2021ad0000000000000000000002000078000000000000000000000000000000080200008e
:0a21cd000000000000000000000008
:2021d7000002000000000000000000000000000000000000000000000000000000000000e6
:0921f700000000000000000000df
:2022000004000000000000000000000070000000000000000000000000000000000000004a
:0a22200000000000000000000000b4
:20222a0000000000000000000000000004e0500000000000000000002dfa12140000109b68
:09224a00018000003c00000000ce
:2022530004038000000000000000000003781a000010000000000000021c5240000001eda1
:0a22730066050200020000000000f2
:20227d00800000000000000000001240000000000000000000000002000000000009000064
:09229d0000000000000000000038
:2022a600000000000000000000000ca00000000000000000000000067c00000000808000ea
:0a22c600000000000000000000000e
:2022d0000c30000000000000000000000000000001000000000000027c0a5004028000b2a1
:0922f000f0024000243800000057
:2022f90004400000000000000000000000000000000000000000000060005a000000700552
:0a2319006b9100000200400000007c
:202323000002000000000000000000000000000000000000000000200000000000001bf865
:09234300388200000000000000d7
:20234c0000000000000000000000000400000000000000000000000c00000000000000fd64
:0a236c006a81080000000000000074
:202376000000000000000000000000e016cc80000000000000000000000000000001000cf8
:09239600014000000001e9e20829
:20239f0000003000000000000000002e026a9050000500000000000000000000001099a323
:0a23bf006814000000002fc814008d
:2023c9000c00000000000000000000200000000000000000000000000305500400000ada88
:0923e90074420000000000000035
:2023f20004c00000000000000000001e00000000000000000000000001dc5561000051dd28
:0a2412003a05000000000000000081
:20241c008000000000000000008001c34000000000000000008000000e03000200031000f6
:09243c000000080000000000008f
:2024450000000000000000000002001c04000000000000000002800001ceb142480081c088
:0a246500000000200000000000004d
:20246f000002000000000000002000000000000004000000002000000300a01080000800cc
:09248f0000000200000000000042
:2024980004000000000000000000000000000000000000000000000001dc0a000000001029
:0a24b8000000000000060000000014
:2024c20000000000000000000000c04400000000000000000000094000000000000190fe1e
:0924e200e00000001668d00100c2
:2024eb0000000000000a00000000000038000000000000000000430000000000000058a54f
:0a250b00b39500002046dcc000205c
:20251500000000000000000000000022000f0000000000000000000740000000000d0b73a3
:09253500508000000028ca0000db
:20253e0000000000000000000000001c701cf0408000000000000000780000000010000f8e
:0a255e007f890000006045e0800066
:20256800000000000000000000000000000f00000000000000000800000000000800181705
:09258800d88000000000df000013
:202591000000000000000000000000040018f040000000000000030000000000010501dbf9
:0a25b1007a85000000068da080006e
:2025bb000002000008b0000000000003afe8a0000000000000000000000f3000000108d8ec
:0925db0003c00040142bd0650080
:2025e40000000000010100000000001e35ca83480000000000000000000af322000080133b
:0a260400a3c0000a0362f78a5430f5
:20260e0000000000000000000000000007e9200000000000000000040100f000000d000a90
:09262e00258800000642e00100cd
:2026370000002000000000000000000001df85404000000000000000281a0f000280018525
:0a265700a65a0000e266158000207c
:20266100083010000000000000000003800000000000000000c003600000000000101e0a33
:09268100658000000201c942005d
:20268a000480030001000000000000007400000000380000000c001e00000000000001b31e
:0a26aa00a25a00000042a008100030
:2026b4008000200000000000008003c380000000000000000080000000000002000000021c
:0926d400258008002402df020049
:2026dd0000000080000a00000002000000000000000000000002020000000000080018012c
:0a26fd00265a0020020637b0000044
:20270700000208000005bc602020000036980080000000000020000036ad100080050b0254
:09272700598002000221f90000b2
:202730000400000000001b411000001c00cd4200000000000000000003dea04000008005a8
:0a275000819a000000603fc80000fd
:20275a00000000000085e9900000000004000000000000000048024000000001000709f0d2
:09277a002a804000140000000058
:20278300000000000001bb264000000000ea5202000000000004001428000000100200087c
:0a27a3002155000003600000000053
:2027ad0000000000008f40800100000002005000000000000006004680000000000d0d0084
:0927cd003c0000000000000000c7
:2027d60000000000000d138910800006007a05000000000000002026240000000000009328
:0a27f60023c2000000028000000072
:2028000000000000008feb88000000c240000000000000000000014287c7b0000810000853
:092820003c000000022800000049
:20282900000000000001b3c400000000700000000000000000000036075c21408100000527
:0a284900a3c20000004040000000a0
:2028530000020000008000000000004001055280000000000000002034fb7080000b8008f9
:092873003c0000008c0000000094
:20287c00000000000001000000000020606855400000000000002005697d21400000b8e7b3
:0a289c0023c20000040680000000c3
:2028a600000000005000000000000063eeda30000000000000000043f687b0000000900067
:0928c6003c0000003602fc000099
:2028cf0000002000000000000000003e2eec03404000000000000020075c2161000850a5ec
:0a28ef00a3c2000001401dd200004a
:2028f90000003000d00f4280050000000000000000000000000060061fba60030000000047
:092919003c0000003400c030084d
:2029220000000100000e1620508000140000000000000000000000002f4c65413000000714
:0a294200a3c20000000016aff02051
:20294c0000002000000542a8008000202d0a401000000000008000c01df95002000f0b0b68
:09296c00a58020000000e020001d
:2029750000000080051c8315400200142bda6442000000000002002703ca654108008001e3
:0a299500a25b000000003da5a02099
:20299f0000000000d00f2204000001641780200004000000000000243dba60000040000b2d
:0929bf00000000060001ddc30068
:2029c80000000000038016015800001e7afaa0000000000000000a0421c865410002000329
:0a29e8000002000000003edc1000b9
:2029f20000000000000b403c000000036eeea00000000000000041e23d02e00000070000f6
:092a12000000000000237f3500e4
:202a1b00000000000000ba03c0008000037ae541000000000000002e03ea5e020000b800c8
:0a2a3b0000000000000045b3800019
:202a4500000000007009417c000015c0000f00000000000000002243ef05f0000000907608
:092a650038c800000026e01a1038
:202a6e000000000001805e968000008e0018f04000000000000000007f5ea500400039e39f
:0a2a8e00ab0c000000676fa154308c
:202a9800000000001087414000000040000000000000000000000026000000000009000097
:092ab80000000080002358bc005e
:202ac1000000000000191717c000002060000000000000000000001c700000000000f800ea
:0a2ae10000000000000656f3c000dc
:202aeb0000020000b00130b0000002c00de520000000000000000002050df004000000005c
:092b0b00000000400c3ce00a004f
:202b1400000000000800da01100000060258b550000000000000a00007dccf428020000015
:0a2b34000000000802001580f20006
:202b3e000000000010b58294000400043c05a000100000000000000017ea100000009d589d
:092b5e003bc440003c2a785b00f6
:202b67000000200008005016a000801e2a00a5400280000000000000006de200000019b5d4
:0a2b87006b3d0a0003c386e0160050
:202b910000000000d080b03c000015402705f00400000000004002c2440df00300090a73a5
:092bb10014800000003c105500e6
:202bba0000000000001953c3e0000080005ea04000000000000400203ceae742b0009989e9
:0a2bda007f440000000006e55200f1
:202be40000002000700d0294008003600105500000000000008000421f0c700220000edefa
:092c0400cc800800002b50640094
:202c0d00000000800000f016a002000438c85560000000000002002004cec30209050005fa
:0a2c2d00e444002001405cca442486
:202c370000000000d0b0800008000022040ff20000000000000017c37e0a000000058092d5
:092c57008e002040403e505f0059
:202c600000000001000038002000020e674cf500000000000000008005ca00000000380daf
:0a2c800070f08008086661aaf000f9
:202c8a000000000010a5e7c00010004400000000100000000010004000000000000500fc19
:092caa001f004000004000000082
:202cb30000000000081912f81001002060000000020000000001002000000000000080059d
:0a2cd300a860080000660000000081
:202cdd00000000000001a548000002424200a000004000000000000000000000000d180c52
:092cfd003d480000004240e700e0
:202d060000000000819a1aa95000002004ee0a00000200000000000600000000000000d18a
:0a2d260063d404000006000db02085
:202d30000000000010adf8000000e3c40e05f00003800000000000240000000000100a382b
:092d500016804000023c305f00d7
:202d5900000000000801f7c040000006627ca040000000000000001e780000000002181dc9
:0a2d790032a9460001c05de5f2003a
:202d8300000200000007a54800000000000f000000000000000003c205024000000900b660
:092da30029c010003c00e0ef0023
:202dac0000000000001a1aa950000000001cf0400000000000000020057a08430000800f15
:0a2dcc006e858000020605ce763009
:202dd60000000000008081540000e3401ffa100000000000000002468de0a00000209b70bc
:092df600028000000003505a00a5
:202dff000000200000017a1540000020005ea540000000000000020062db18000001718d0b
:0a2e1f00a800000000001e80a000c3
:202e2900204000005000803c00000020000040000040000000c0114026dff004000180b73b
:092e4900d4845c0000286dff1028
:202e5200420280000018323c20000014017804120002000000040080387c5b600000b0ad01
:0a2e7200396901400003edda750034
:202e7c00000020000000003c00800022c00f520000000000008409c6cd0ef1020001000ce9
:092e9c0032c008002c0000000007
:202ea50000000080000a3a3c2002001e004af53000000000000280602bc8cf42480080a709
:0a2ec500732c08200000000000003c
:202ecf000000000010a0f43c00000042800550800400000000000343e6847000038000dce9
:092eef00000400008037d0fa0055
:202ef8000000000008005ffc2000002005fc5560800000000000000002eb8500000500a7c3
:0a2f180062800000040680af520042
:022f22000000ad
:022f2400110298
:022f26000101a7
:202f2800000000000000000000000000000000000000000000000000000000000000000089
:092f480000000000000000000080
:202f5100000000000000000000000000000000000000000000000000000000000000000060
:0a2f71000000000000000030000026
:202f7b00000000000000000000000000000000000000000000000000000000000000000036
:092f9b000000000000000000002d
:202fa40000000000000000000000000000000000000000000000000000000000000000000d
:0a2fc4000000000000000000000003
:202fce000000000000000000000000000000000000000000000000000000000000000000e3
:092fee00000000000000000000da
:202ff7000000000000000000000000000000000000000000000000000000000000000000ba
:0a30170000000000000000000000af
:203021000000000000080000000000002000000000080000000000002000000000000080bf
:0930410000000000000200000084
:20304a00000000000000000000000000000000000000000000000000000000000000000066
:0a306a00000000000000000000005c
:2030740000000000000800000000000020000000000800000000000020000000000000806c
:0930940000000000000200000031
:20309d00000000000000000000000000000000000000000000000000000000000000000013
:0a30bd000000000000000000000009
:2030c7000000000000000000000000000000000000000000000000000000000000000000e9
:0930e700000000000c00000000d4
:2030f0000000000000000000000000000000000000000000000000000000000000000000c0
:0a3110000000000000c000000000f5
:20311a00000000000000000000000000000000000000000000000000000000000000000095
:09313a000000000000000000008c
:2031430000000000000000000000000000000000000000000000000000000000000000006c
:0a3163000000000000000000000062
:20316d00000000000000000000000000000000000000000000000000000000000000000042
:09318d0000000000000000000039
:20319600000000000000000000000000000000000000000000000000000000000000000019
:0a31b600000000000000000000000f
:2031c000000000000000000000000000000000000000000000000000000000000100821656
:0931e000000000000000000000e6
:2031e900000000000000000000000000000000000000000008000000000000000000074077
:0a32090000000000000000000000bb
:2032130000000000000000000000000000000000000000000000000000000000030f1380f6
:093233000000400040ca00000147
:20323c0000000000000000000000000000000000000000000000000000000000000f000063
:0a325c0002000100003dc00800045c
:2032660000000000000000000000000000000000000000000000000000000000030f12a67e
:0932860000000000000018000027
:20328f0000000000000000000000000000000000000000000000000000000000000f0040d0
:0a32af0040000000000000000000d5
:2032b90000020000000000000000000000000000000000000000000000000000030f12a02f
:0932d90060002009a55c00000062
:2032e20080000000000000000000000000000000000000000000000000000000000f0040fd
:0a330200400003001a420000000c16
:20330c0000000000000000000000000000000000000000000000000000000000830f178078
:09332c0000000019680101a00075
:2033350000002000000000000000000000000000000000000000000000000000000f000049
:0a335500000000202940c00a00001b
:20335f0000000000000000000000000000000000000000000000000000000000030f1680a6
:09337f0000000000000000100035
:2033880000000000000000000000000000000000000000000000000000000000000f000016
:0a33a8000000000000000008000013
:2033b20000000000000000000000000000000000000000000000000000000000030f168053
:0933d20060000000000080000012
:2033db0000000000000000000000000000000000000000000000000000000000000f004083
:0a33fb0000000000000005000000c3
:2034050000000000000000000000000000000000000000000000000000000000030f1786f8
:093425007c002000000000000002
:20342e0080000000000000000000000000000000000000000000000000000000000f0040af
:0a344e000200020000000000000868
:2034580000000000000000000000000000000000000000000000000000000000030f1380af
:0934780000000000136c50a000dc
:2034810000000000000000000000000000000000000000000000000000000000020f00001a
:0a34a10000000000000fb0880000da
:2034ab0000000000000000000000000000000000000000000000000000000000030f13805c
:0934cb00000040020f59199000a5
:2034d40000000000000000000000000000000000000000000000000000000000000f0000c9
:0a34f4000200010030f6809900008c
:2034fe0000000000000000000000000000000000000000000000000000000000030f12a6e4
:09351e0000000101696d180000b4
:2035270000000000000000000000000000000000000000000000000000000000000f004035
:0a354700400000000101c9800000ef
:2035510000020000000000000000000000000000000000000000000000000000030f12a094
:0935710060002113fd689990002f
:20357a0000000000000000000000000000000000000000000000000000000000000f0040e2
:0a359a00400003000302991800002e
:2035a40000000000000000000000000000000000000000000000000000000000030f17805e
:0935c40000000000406ed8000078
:2035cd0000002000000000000000000000000000000000000000000000000000000f0000af
:0a35ed0000000000002ee5000000c1
:2035f70000000000000000000000000000000000000000000000000000000000030f16800c
:0936170000000000037f80900018
:2036200000000000000000000000000000000000000000000000000000000000080f000073
:0a36400000000000203d950a000084
:20364a0000000000000000000000000000000000000000000000000000000000030f1680b8
:09366a006400010001c881b000f8
:2036730000000000000000000000000000000000000000000000000000000000000f0040e8
:0a369300020000002002e50a00001a
:20369d0000000000000000000000000000000000000000000000000000000000030f17865e
:0936bd000400200005fdd8000006
:2036c60000000000000000000000000000000000000000000000000000000000000f004095
:0a36e600020002000037c5000000da
:2036f0000000000000000000000000000000000000000000000000000000000012aa12806c
:09371000000000000000001000a0
:2037190000002000000000000000000000000000000000000800000000000000020aa000bc
:0a373900000000000000000c00007a
:20374300000000000000000000000000000000000000000000000000000000000000000066
:093763000000400014da0000012e
:20376c0000000000000000000000000000000000000000000000000000000000000000003d
:0a378c0002000100014005000004e6
:20379600000000000000000000000000000000000000000000000000000000000000000013
:0937b6000400010001ca18000022
:2037bf000000000000000000000000000000000000000000000000000000000000000000ea
:0a37df00020000002000800a000034
:2037e9000000000000000000000000000000000000000000000000000000000000000000c0
:093809000000210a946b0180000b
:20381200000000000000000000000000000000000000000000000000000000000000000096
:0a383200000003042983c010000009
:20383c0000000000000000000000000000000000000000000000000000000000000000006c
:09385c0000000000000000100053
:2038650008002000000000000000000000000000000000000000000000000000000000001b
:0a388500000000000000000a00002f
:20388f00000000000000000000000000000000000000000000000000000000000000000019
:0938af0000000000000000800090
:2038b8000000000000000000000000000000000000000000000000000000000000000000f0
:0a38d80000000000000000000000e6
:2038e2000000000000000000000000000000000000000000000000000000000000000000c6
:09390200000000000000000000bc
:20390b00080000000000000000000000000000000000000000000000000000000000000094
:0a392b00000000000000000800008a
:20393500000000000000000000000000000000000000000000000000000000000000000072
:0939550000002000000000000049
:20395e00000000000000000000000000000000000000000000000000000000000000000049
:0a397e00000002000000000000003d
:203988000000800000000000000000000000000000000000000000000000000002695000e4
:0939a800000420000000000000f2
:2039b100000020000000000000000000000000000000000000000000000000010009603834
:0a39d10000000400000000000010d8
:2039db000000000000000000000000000000000000000000000000000000001002f070005a
:0939fb0000004000000000000083
:203a040008000000000000000000000000000000000000000400000000000000400f000047
:0a3a24000000010000000000000097
:203a2e0000000000000000000000000000000000000000000000a94000000000000000008f
:093a4e000400000000000000006b
:203a57000000000000000000000000000000000000000000000001680f00000000000000d7
:0a3a77000200000000000000000043
:203a81000001000000000000000000000000000000000000000000000180000000000000a3
:093aa1000000000000000000001c
:203aaa000000000000000000000000000000000000000000000000000000000000000000fc
:0a3aca0000000000000000000000f2
:203ad4000000000000000000000000000000000000000000000000000000000000000000d2
:093af400000000000000000000c9
:203afd000000040000000000000000000000000000000000000000000000000000000000a5
:0a3b1d00000000000000000000009e
:203b2700000000000000000600000000000000000000000000000000000000000000000078
:093b470000000000000000000075
:203b5000000000000000000000000000000000000000000000000000000000000000000055
:0a3b70000000040000000000001037
:203b7a000000000000000000000000000000000000000000000000000f800000000000009c
:093b9a00600000000000000400be
:203ba3000800000000000000000000000000000000000000000000000010000000000000ea
:0a3bc30000000000000000002000d8
:203bcd0000000000000000000000000000000000000000000020815da0000000000000003a
:093bed00000020000000000000af
:203bf6000000000000000000000000000000000000000000000003d43f0000000000000099
:0a3c160000000000000000000000a4
:203c2000000000000000000000000000000000000000000000000000000000000100028001
:093c40000000200000005180008a
:203c490000000000000000000000000000000001000000000800000000000001000005004c
:0a3c6900000004000000009b0010a2
:203c730000000000000000000000000000000000000000000000000000000000030f13808c
:093c9300000040020fdd500001a9
:203c9c0000000000000000000000000000000000000000000000000000000000000f0000f9
:0a3cbc000000010030fecd8000047e
:203cc60000000000000000000000000000000000000000000000000000000000030f12a614
:093ce60028000101684d001000e6
:203cef0000000000000000000000000000000001000000000000000000000000000f004065
:0a3d0f00428004000103e0090000f7
:203d190000020000000000000000000000001c00000000000000000000000000030f12a0a8
:093d390060000301d569180000c7
:203d420000000000000000000000000000000000000000000000000000000000000f004012
:0a3d6200400000002b82a00f0000bb
:203d6c0000000000000000000000000000000000000000000000000000000000030f17808e
:093d8c000000000041cad0000053
:203d950000002000000000000000000000000000000000000000000000000000000f0000df
:0a3db50000000000002ce5000000f3
:203dbf0000000000000000000000000000000000000000000000000000000000030f16803c
:093ddf000000000001df01b00248
:203de80000000000000000000000000000000000000000000000000000000000000f0000ac
:0a3e08000000000000aef00a000008
:203e120000000000000000000000000000000000000000000000000000000000030f1680e8
:093e320060000100086959a000bc
:203e3b0000000000000000000000000000000000000000000000000000000000000f004018
:0a3e5b00000000000002c00a000091
:203e650000000000000000000000000000000000000000000000000000000000030f17868e
:093e85000400230a947b808000f4
:203e8e0000000000000000000000000000000000000000000000000000000000000f0040c5
:0a3eae00020100022983a5000000b4
:203eb80000000000000000000000000000000000000000000002aa8f80000000030f13808a
:093ed8000000000006ff000000dc
:203ee1000800200000000000000000000000000000000000000002a830000000020f0000ae
:0a3f010000000000003fe90000008e
:203f0b0000300000000000000000000000000000000000000000aa87c1800010030f13803f
:093f2b0000004000000001e0016b
:203f34000800000000000000000000000000000000000000000222a80070b000400f00002a
:0a3f5400000001000000001a000444
:203f5e00000000000000000000000000000000000000000000201414d0010000030f12a660
:093f7e00000000000000800000ba
:203f87000000000000000000000000000000000000000000000000000a008000000f004041
:0a3fa70040000000000007000000c9
:203fb10000030000000000000800000000000000000000000000000000180000030f12a009
:093fd10060000000416c19800041
:203fda0000000000000000000080000000000000000000000000000000000000000f0040f8
:0a3ffa0040000000003ec0900000ef
:2040040000000000000000000000000000000000000000000000a94010180000030f1780e2
:094024000000002b8a6a01b000c3
:20402d0000000000000000000000000000000000000000000000016808000000010f0000f2
:0a404d0000000000304d900a000052
:2040570040000000000000000000000000000c00000000000020aa87cf010000030f168034
:0940770000000000037b5810005a
:2040800000c0000000000000000000000000000000000000000202a830188000008f00005d
:0a40a00000000000103ed0080000f0
:2040aa0000000000000000000000000000000000000000000000a94010000000030f168055
:0940ca006400010000cf80000039
:2040d30008000000000000000000000000000000000000000000016809000000000f004004
:0a40f300020000001001850000002b
:2040fd0040000000000000000000000000000000000000000000a94010000000030f1786bb
:09411d000400200015fef081c031
:204126000000000000000000000000000000000000000000000001680d000000000f0040b4
:0a41460002000000014105900c008a
:2041500040000000000000000000000000000000000000000002a17cc180000002aa128071
:0941700000000005981e0180000a
:20417900000020000000000000000000000000000000000008080225cb7000000a0aa000e0
:0a4199000000000019ad0000000056
:2041a3000000000000000000000000000000001000000000000000000000001000000000dc
:0941c30000004005a65e01800128
:2041cc0008000000000000000000000000000000400000000000000000000000400000004b
:0a41ec00000001001a45000f000456
:2041f600440000000000000000000000000000000000000000023fc0010000000000000063
:0942160004000025a45a18100050
:20421f0000c0000000000000000000000000000000000000000003fc0008d00000000000e8
:0a423f00020000001a6d00080000e4
:2042490000030000000000000000000000000000000000000000b885a98b000000000000e1
:0942690000600005a65898000051
:204272000000000000000000000000000000000000000000000013066f1080000000000014
:0a429200000000001a4401000000c3
:20429c0000000000000000000000000000000000000000000000815fb0080000000000006a
:0942bc00000000003c5b00000062
:2042c5000000200000000000000000000000000000000000000003d40b01000000000000d6
:0a42e500000000013c01b7000000da
:2042ef0040780000000000000020815ff00000000000000000000000000000800000000087
:09430f000000001a9cff01c0c06f
:204318000004000000000000000003d42f000000000000000000000000000010000000006b
:0a433800000000000094801e000049
:2043420000000000000000000000a94010000000000000000001a175a801000000000000a2
:09436200000000189f6900010031
:20436b000800000000000000000001680f0000000000000000003225db70e0000000000030
:0a438b000000000000dec00000008a
:204395004000000000000000000000000f180000000000000000a940100f00000000000099
:0943b5000030200a9f5b79c0c0b2
:2043be000000000000000000000000000010000000000000000001680e00e0000000000078
:0a43de0000000001005fcf9e000008
:2043e800400000000000000000029a54c000000000000000000000000800000001000216a4
:094408000000000009ed80000035
:204411000000000000000000000021a40000000000000000000000000050000000000b402b
:0a443100200000001026d10000005a
:20443b00006000000000000000019680000000100000000000000037b0000000030f13804e
:09445b000000450b816e00000118
:204464000800000000000000000042940c0000004000000000000103ed000002000f00000c
:0a44840000000100380000000004f1
:20448e00700000000000000000000000000100000000000000000000001b0000030f12a6b8
:0944ae0000000022bddc800000ca
:2044b7000000000000000000000000000000800000000000000000000000e000000f004036
:0a44d700400000002bc305000000a8
:2044e100000300000000000000000000000000000000000000000000059a0000030f12a055
:09450100600000083de000f0003c
:20450a0000000000000000000000000000000000000000000000000000000000000f004042
:0a452a004004000003c2000f00006f
:2045340000000000000000000000000000180000000000000000000000180000030f17a06e
:09455400000002003ded00e00052
:20455d0000002000000000000000000000000000000000000000000000d001c0000f00017d
:0a457d00c00000401402d01f00002f
:2045870000000000000000000000000000000000000000000000000005001000030f168057
:0945a7000000020a2fecf00000f4
:2045b00000000000000000000000000000000000000000000000000000080000000f0000d4
:0a45d000000000000154bf8000004d
:2045da0000000000000000000000000000000000000000000000041ca00a0000030f16804f
:0945fa0060000000000081800057
:204603000000000000000000000000000000000000000000000000024a01b000000f00404b
:0a4623000000000000000700000086
:20462d0000000000000000000000000000000008000000060010001cc0000800030f1786bc
:09464d000400200000009184002b
:204656000000000000000000000000000000000040000000000001001cd00000000f0040c8
:0a4676000200010000000700000030
:02468000000038
:02468200110322
:02468400010132
:20468600000000000000000000000000000000000000000000000000000000000000000014
:0946a6000000000000000000000b
:2046af000000000000000000000000000000000000000000000000000000000000000000eb
:0a46cf0000000000000000000000e1
:2046d9000000000000000000000000000000000000000000000000000000000000000000c1
:0946f900000000000000000000b8
:20470200000000000000000000000000000000000000000000000000000000000000000097
:0a472200000000000000000000008d
:20472c0000000000000000000000000000000000000000000000000000000000000000006d
:09474c0000000000000000000064
:20475500000000000000000000000000000000000000000000000000000000000000000044
:0a477500000000000000000000003a
:20477f0000000000000800000000000020000000000800000000000020000000000000804a
:09479f000000000000020000000f
:2047a8000000000000000000000000000000000000000000000000000000000000000000f1
:0a47c80000000000000000000000e7
:2047d2000000000000080000000000002000000000080000000000002000000000000080f7
:0947f200000000000002000000bc
:2047fb0000000000000000000000000000000000000000000000000000000000000000009e
:0a481b000000000000000000000093
:20482500000000000000000000000000000000000000000000000000000000000000000073
:094845000000000000000000006a
:20484e0000000000000000000000000000000000000000000000000000000000000000004a
:0a486e000000000000000000000040
:20487800000000000000000000000000000000000000000000000000000000000000000020
:0948980000000000000000000017
:2048a1000000000000000000000000000000000000000000000000000000000000000000f7
:0a48c10000000000000000000000ed
:2048cb000000000000000000000000000000000000000000000000000000000000000000cd
:0948eb00000000000000000000c4
:2048f4000000000000000000000000000000000000000000000000000000000000000000a4
:0a4914000000000000000000000099
:20491e00000000000000000000000000000000000000000000000000000000000000000079
:09493e0000000000000008000068
:2049470000000000000000000000000000000000000000000000000000000000c000000090
:0a4967000000000000000100000045
:20497100000000000000000000000000000000000000000000000000000000000000000026
:09499100000000039be800000097
:20499a000000000000000000000000000000000000000000000000000000000000000000fd
:0a49ba00000000002e6680000000df
:2049c4000000000000000000000000000000000000000000000000000000000000000000d3
:0949e400000000000000000000ca
:2049ed000000000000000000000000000000000000000000000000000000000000000000aa
:0a4a0d00000000000000000000009f
:204a170000020000000000000000000000000000000000000000000000000000000000007d
:094a370000000000000000000076
:204a4000000000000000000000000000000000000000000000000000000000000000000056
:0a4a6000000000000000000000004c
:204a6a0000000000000000000000000000000000000000000000000000000000000000002c
:094a8a000000000000000008001b
:204a93000000200000000000000000000000000000000000000000000000000000000000e3
:0a4ab30000000000000000000000f9
:204abd000000000000000000000000000000000000000000000000000008000000000000d1
:094add00000000000000000000d0
:204ae6000000000000000000000000000000000000000000000000000000100000000000a0
:0a4b060000000000000000000000a5
:204b1000000000000000000000000000000000000000000000000000000000040000000081
:094b300000000000000008000074
:204b390000000000000000000000000000000000000000000000000000000001000000005b
:0a4b590000000000000001800000d1
:204b6300000000000000000000000000000000000000000000082a80000000000000000080
:094b830000000000000001900098
:204b8c00000000000000000000000000000000000000000000004aa84a00000000000000cd
:0a4bac0000000000000000190000e6
:204bb600000000000000000000000000000000000000000000003c01000800000080078093
:094bd6002830000000000000007e
:204bdf00000000000000000020000000000000000000000000000c3c5e181000c405a5bd9d
:0a4bff006640000000000000000006
:204c0900000000000000000000000000000000000000000000003c01000800000000bba4e7
:094c29002800000000000000005a
:204c3200000000000000000000000000000000000000000000000c3c5a019000000101b974
:0a4c520066c0000000000000000032
:204c5c00000000000000000000000000000000000000000000003c0000000000004006d4e2
:094c7c000000000000000000002f
:204c8500000000000000000000000000000000000000000000020c3c5a000000040007322e
:0a4ca5000200000000000000000003
:204caf00000200000000000000000000000000000000000000043c00000000000040b7d4d8
:094ccf00000000000000000000dc
:204cd800000000000000000000000000000000000000000000000c3c5e000000000009e627
:0a4cf80000000000000000000000b2
:204d0200000000000000000000000000000000000000000000003c01010000000000000053
:094d220000000000000000000088
:204d2b00000020000000000000000000000000000000000000000c3c4a81800000000000b5
:0a4d4b0002800000000000000000dc
:204d5500000000000000000000000000000000000000000000003c010100000000050414e3
:094d750020000000000000000015
:204d7e00000000000000000000000000000000000000000000000c3c4a980000000053b8e0
:0a4d9e0002400000000000000000c9
:204da800000000000000000000000000000000000000000000003c00000000040000ff02aa
:094dc80040001000000000000092
:204dd100000000000000000000000000000000000000000000000c3c4e000001000017f420
:0a4df100660004000000000000004e
:204dfb00000000000000000000000000000000000000000080083c0000000000000f5380f2
:094e1b000000000000000000008e
:204e2400000000000000000000000000000000000000000000000c3c4e00000000a8b52457
:0a4e440002800000000000000000e2
:204e4e00000000000000000000000000000000000000000000003c010008000000000014eb
:094e6e000000000000000000003b
:204e7700000000000000000000000000000000000000000000000c3c5e181000c00000028b
:0a4e9700020000000000000000000f
:204ea100000000000000000000000000000000000000000000003c010009000000000000ab
:094ec100280000000000000000c0
:204eca00000000000000000000000000000000000000000000000c3c5a0190000000000194
:0a4eea0066800000000000000000d8
:204ef400000000000000000000000000000000000000000000003c000000000000c3fb00a4
:094f14002800000000000000006c
:204f1d00000000000000000000000000000000000000000000000c3c5a00000000083f7417
:0a4f3d0006c00000000000000000a4
:204f4700000200000000000000000000000000000000000000003c000900000000000014ef
:094f670000000000000000000041
:204f7000000000000000000000000000000000000000000000000c3c5e80000000000003f8
:0a4f900040000000000000000000d7
:204f9a00000000000000000000000000000000000000000000003c010100000000000000b9
:094fba00000000000000000000ee
:204fc300000020000000000000000000000000000000000000000c3c4a818000000000001b
:0a4fe30000000000000000000000c4
:204fed00000000000000000000000000000000000000000000003c01010000000000b3941f
:09500d0028000000000000000072
:20501600000000000000000000000000000000000000000000000c3c4a9800000001072820
:0a5036000000000000000000000070
:20504000000000000000000000000000000000000000000000003c0000000004008006c0ca
:0950600000000000000000000047
:20506900000000000000000000000000000000000000000000000c3c4e000001040003a0e9
:0a508900000000000000000000001d
:2050930000000000000000000000000000000000000000000000002c0000000000007ff45e
:0950b300000000000000000000f4
:2050bc000000000000000000000000000000000000000000000004000e00000000004fb0c3
:0a50dc0000000000000000000000ca
:2050e600000000000000000000000000000000000000000000000000000000180000000092
:09510600000000000000000000a0
:20510f004000000000000000000000000000000000000000000000000000000080000000c0
:0a512f000000030000000000000c67
:20513900000000000000000000000000000000000000000000000000000000000000000452
:095159000000000000000000014c
:2051620000000000000000000000000000000000000000000000000000000000000000022b
:0a5182000000000000000000000023
:20518c00000000000000000000000000000000000000000000000000000000000000000003
:0951ac00000000000000000000fa
:2051b5000000000000000000000000000000000000000000000000000000000000000000da
:0a51d50000000000000000000000d0
:2051df0000020000000000000000000000000000000000000000000000000010000000009e
:0951ff0000004042580b000000c2
:20520800000000000000000000000000000000000000000000000000000000000000000086
:0a522800000000009a56000000008c
:205232000000000000000000000000000000000000000000000000000000000c0000000050
:0952520000000043c020008000b0
:20525b0000002000000000000000000000000000000000000000000000000080c0000000d3
:0a527b0000000000bc140001000058
:205285000000000000000000000000000000000000000000000000000008000000f0080009
:0952a50020000000000000800060
:2052ae0000000000000000000000000000000000000000000000000000001000002f07009a
:0a52ce000040000000000181000014
:2052d8000000000000000000000000000000000000000000000000000008000400000000aa
:0952f8000000100000000000009d
:2053010040000000000000000000000000000000000000000000000000000001000000004b
:0a532100000004000000000000106e
:20532b00000000000000000000000000000000000000000080082a800000001000690400b3
:09534b0000004282a800000001ec
:20535400000000000000000000000000000000000000000000004aa84a000000002695380a
:0a53740000000000aa84a000000061
:20537e00000000000000000004000000000000000000000000843c0100080018000000002a
:09539e0000000003c010008000b3
:2053a700400000000000000000000000000000000000000000000c3c5e1810008000000058
:0a53c70000000000c3c5e181000ce6
:2053d100000000000000000000000000000000000000000000843c010008000000000000f3
:0953f10000000003c0100080015f
:2053fa00000000000000000000000000000000000000000000000c3c5a0190000000000060
:0a541a0000000000c3c5a019000047
:20542400000000000000000000000000000000000000000000043c00000000000000000226
:0954440000000203c0000000009a
:20544d00000000000000000000000000000000000000000000000c3c5a000000000000019c
:0a546d00e0000000c3c5a00000002d
:20547700000000000000000000000000000000000000000000243c000000000000000002b3
:095497003c000203c0000000000b
:2054a000000000000000000000000000000000000000000000000c3c5e0000000000000145
:0a54c000e0400000c3c5e00000005a
:2054ca00000000000000000000000000000000000000000000043c010100000c0000000074
:0954ea0000000003c010100000d6
:2054f300000000000000000000000000000000000000000000000c3c4a818000c000000046
:0a55130000000000c3c4a818000047
:20551d00000000000000001000000000000000000000000000803c010100000000000000a0
:09553d0000004003c01010000042
:20554600000000000000000200000000000000000000000000000c3c4a9800000000000019
:0a55660000000000c3c4a98000008b
:20557000000000000000000000000000000000000000000000003c000008000400000000d3
:0955900000001003c0000000003f
:20559900400000000000000000000000000000000000000000001c3c4e000001000000000b
:0a55b90000000400c3c4e00000502d
:2055c300000000000000000704000000000000100000000000083c000000001000471f00f3
:0955e30020004083c0000000011b
:2055ec00000000000000000000000000000000000000000000001c3c4e00000020a81370ae
:0a560c0000400000c3c4e0000000ed
:20561600000000000000000702000000070000000000000000013c010008000804f00024fe
:0956360028000003c010008000f0
:20563f00400000000000000000200000008000000000000000000c3c5e181000800f03010a
:0a565f00e6c00000c3c5e181000ca5
:205669008000000000000000000000000708a0000000000000003c010000000000000000b5
:0956890028000003c01000d0004d
:20569200000000000000006000000000008000000000000020000c3c5a01800000000001d4
:0a56b20042800000c3c5a0190000eb
:2056bc00000000000000000000000000000880000000000000013c0000000000108af6d4a5
:0956dc0040000003c00070000052
:2056e500000000000000000000000000000005400000000000000c3c5a00000000285dff3a
:0a57050062000000c3c5a000000010
:20570f00000340000000000020000000000a00000000000000803c00000e00000000bb94f4
:09572f0024000003c0000000008a
:20573800000000000000000001000000000010000000000100000c3c5e001000000103b9cc
:0a57580060400000c3c5e00000003f
:20576200000000000000000003000000039000000000000000003c010100000c0404070434
:0957820040000003c010100000fb
:20578b000000200000000080003000000079e0000000000000000c3c4a818000c405a1bc1c
:0a57ab0007000000c3c4a8180000a6
:2057b50000000000000003c000000015c11000000000002000023c010100000000c3bb80cd
:0957d50000002203c010100000c6
:2057de00000000000000000400000041da81e0000000000060000c3c4a98000000083b7ce2
:0a57fe0000000200c3c4a9800000ef
:205808008000000f0000020001001000b00000000000000000003c0000180c0400000000ca
:0958280020001003c00000000084
:205831004000000af070000000410000e80000000000000000002c3c4e01a001000000002c
:0a58510000400400c3c4e000001092
:20585b00000040096038000020001017b00f000000000000a000000c000000000000003c5e
:09587b000000000002c000000062
:20588400000008066950000000000003ef001000000000000000040018000000000000021d
:0a58a400000000004020e0000000ba
:2058ae00000000000000000000000000000000000000000000000000070040000000000093
:0958ce00000010000000000000c1
:2058d7000000000000000000000000000000000000000000000000000000000000000000b1
:0a58f70000000200000000000000a5
:20590100000000000000000000000000000f000000000000100000000b0d0000000000004f
:0959210000000000000000e0009d
:20592a000000000000000000000000000000b000000000000000000000801000000000001d
:0a594a000000000000000000000053
:20595400000000000000000000042980bf00000000000000000000000b1d0000000000009f
:0959740000000000000001e00049
:20597d00000000000000000000010a955b80000000000000000000000081d000000000003e
:0a599d0000000000000000190000e7
:2059a70000000000000000030000001cd000000000000003000000000000400000000000ae
:0959c700000000000000100000c7
:2059d0000000000000000000000000816f00000000000000000000000000080000000000bf
:0a59f00000000000000008000000a5
:2059fa00000000000000000000000000090f0000000000000000001ff00000000000000066
:095a1a0000000000000000000083
:205a2300000010000000000000000000000190000000000000001011590000000000000048
:0a5a43000000000000000000000059
:205a4d000000000000000000000000000010000000000000000000000080000000000000a9
:095a6d00200000011edb50800046
:205a76000000000000000000000000000000a0000000000000000000005000000000000020
:0a5a960000400004908ead010000f6
:205aa00000000000000000000000000000000004000000000000003ecd00000000000000d7
:095ac0000000100369c800900009
:205ac900400000000000000000000000000000010000000000001004fd000000000000006b
:0a5ae90000000401a007c000001037
:205af3000002000000000000000000000000000000000000000001410000000020aa000085
:095b1300000000215409500000bb
:205b1c00000000000000000000000000000000000000000000001014ee000000002aa12864
:0a5b3c0000000004aa940018000005
:205b46000000000000000000000000000000000000000000002011c2f009000000f004005f
:095b660020001000000000a00066
:205b6f00000000000000000000000000000000000000000000010815fa1810000030f1783d
:0a5b8f006040020000000001000069
:205b9900000000000000200000000000000010000000000000000142c18b000000f0040039
:095bb90020000000000000a00023
:205bc2000000000000001e0000000000000000000000000000000029411800000030f1689a
:0a5be200064000000000059b0000d3
:205bec00002400000000e40000000000000000000000000000010007e98f000000f0000021
:095c0c0000000000101e08e00079
:205c15000000400000003e280000000000000080000000000000000778f010800030f168c1
:0a5c350000000012168cf7010000b9
:205c3f000000000000002300000000000000000000000000000001400000000000f00000f1
:095c5f00000000030e6a508400ed
:205c68000000000000000c0400000000000000000000000000000015d80000000030f17886
:0a5c88000000000020e5b8018000d4
:205c92000000000e6bf0000000000000000000000000000000010342900a000000f00404b1
:095cb20000000000d75dd1900054
:205cbb0000003000b93a400000000000000000000000000000012a3d4958f0000030f12a22
:0a5cdb00060000000e0fbf192000a4
:205ce5001000000e637c0000000000000000000000000000200010018300000000f00404f6
:095d0500000008429419d0b0001e
:205d0e0003000000b91f000000000000000000000000000005010001fd1800000030f12a33
:0a5d2e00600000018295a01800003b
:205d38008000000000000000000000000000000000000000000000179508000400f0000023
:095d5800000012400d58980000f3
:205d6100400000000000003000000000000000000000000000000013dcd1b0010030f138e8
:0a5d81000000040489d4898000109a
:205d8b00000000000001c000000000000000000000000000800000000008000020f000009f
:095dab000000000002ee190000e6
:205db400000004000000000000000000000000000000000000000000005800000030f1381a
:0a5dd400000000000406e98800004a
:025dde000000c3
:035de00062003f1f
:035de300720080cb
:025de6001100aa
:035de80082000036
:025deb000103b2
:085ded000000000000000000ae
:085df5000000000000000000a6
:085dfd0000000000000000009e
:085e0500000000000000000095
:0261ed000000b0
:0361ef00820080ab
:0261f2000103a7
:0861f4000000000000000000a3
:0861fc0000000000000000009b
:08620400000000000000000092
:08620c0000000000000000008a
:0265f4000000a5
:0265f600110191
:0365f8008200001e
:0265fb0001039a
:0865fd00000000000000000096
:0866050000000000000000008d
:08660d00000000000000000085
:0866150000000000000000007d
:0269fd00000098
:0369ff0082008093
:026a020001038e
:086a040000000000000000008a
:086a0c00000000000000000082
:086a140000000000000000007a
:086a1c00000000000000000072
:026e040000008c
:026e0600110277
:036e080082000005
:026e0b00010381
:086e0d0000000000000000007d
:086e1500000000000000000075
:086e1d0000000000000000006d
:086e2500000000000000000065
:02720d0000007f
:03720f008200807a
:02721200010376
:08721400000000000000000072
:08721c0000000000000000006a
:08722400000000000000000062
:08722c0000000000000000005a
:02761400000074
:0276160011035e
:03761800820000ed
:02761b00010369
:08761d00000000000000000065
:0876250000000000000000005d
:08762d00000000000000000055
:0876350000000000000000004d
:027a1d00000067
:037a1f0082008062
:027a220001035e
:087a240000000000000000005a
:087a2c00000000000000000052
:087a340000000000000000004a
:087a3c00000000000000000042
:027e240000005c
:017e26002239
:027e2700c7dfb3
:027e2900010650
:00000001FF
